{
  "contractName": "Brevet",
  "abi": [
    {
      "inputs": [
        {
          "internalType": "uint256",
          "name": "_feepercent",
          "type": "uint256"
        }
      ],
      "stateMutability": "nonpayable",
      "type": "constructor"
    },
    {
      "anonymous": false,
      "inputs": [
        {
          "indexed": false,
          "internalType": "uint256",
          "name": "itemId",
          "type": "uint256"
        },
        {
          "indexed": true,
          "internalType": "address",
          "name": "nft",
          "type": "address"
        },
        {
          "indexed": false,
          "internalType": "uint256",
          "name": "tokenId",
          "type": "uint256"
        },
        {
          "indexed": false,
          "internalType": "uint256",
          "name": "price",
          "type": "uint256"
        },
        {
          "indexed": true,
          "internalType": "address",
          "name": "seller",
          "type": "address"
        },
        {
          "indexed": true,
          "internalType": "address",
          "name": "buyer",
          "type": "address"
        }
      ],
      "name": "BoughtNFT",
      "type": "event"
    },
    {
      "anonymous": false,
      "inputs": [
        {
          "indexed": false,
          "internalType": "uint256",
          "name": "itemId",
          "type": "uint256"
        },
        {
          "indexed": true,
          "internalType": "address",
          "name": "nft",
          "type": "address"
        },
        {
          "indexed": false,
          "internalType": "uint256",
          "name": "tokenId",
          "type": "uint256"
        },
        {
          "indexed": false,
          "internalType": "uint256",
          "name": "price",
          "type": "uint256"
        },
        {
          "indexed": true,
          "internalType": "address",
          "name": "seller",
          "type": "address"
        }
      ],
      "name": "NFTCreated",
      "type": "event"
    },
    {
      "inputs": [],
      "name": "brevetOwner",
      "outputs": [
        {
          "internalType": "address payable",
          "name": "",
          "type": "address"
        }
      ],
      "stateMutability": "view",
      "type": "function"
    },
    {
      "inputs": [],
      "name": "feePercent",
      "outputs": [
        {
          "internalType": "uint256",
          "name": "",
          "type": "uint256"
        }
      ],
      "stateMutability": "view",
      "type": "function"
    },
    {
      "inputs": [],
      "name": "itemCount",
      "outputs": [
        {
          "internalType": "uint256",
          "name": "",
          "type": "uint256"
        }
      ],
      "stateMutability": "view",
      "type": "function"
    },
    {
      "inputs": [
        {
          "internalType": "uint256",
          "name": "",
          "type": "uint256"
        }
      ],
      "name": "items",
      "outputs": [
        {
          "internalType": "uint256",
          "name": "itemId",
          "type": "uint256"
        },
        {
          "internalType": "contract IERC721",
          "name": "nft",
          "type": "address"
        },
        {
          "internalType": "uint256",
          "name": "tokenId",
          "type": "uint256"
        },
        {
          "internalType": "uint256",
          "name": "price",
          "type": "uint256"
        },
        {
          "internalType": "address payable",
          "name": "seller",
          "type": "address"
        },
        {
          "internalType": "bool",
          "name": "sold",
          "type": "bool"
        }
      ],
      "stateMutability": "view",
      "type": "function"
    },
    {
      "inputs": [
        {
          "internalType": "contract IERC721",
          "name": "_nft",
          "type": "address"
        },
        {
          "internalType": "uint256",
          "name": "_tokenId",
          "type": "uint256"
        },
        {
          "internalType": "uint256",
          "name": "_price",
          "type": "uint256"
        }
      ],
      "name": "createBrevetNFT",
      "outputs": [
        {
          "internalType": "bool",
          "name": "",
          "type": "bool"
        }
      ],
      "stateMutability": "nonpayable",
      "type": "function"
    },
    {
      "inputs": [
        {
          "internalType": "uint256",
          "name": "_itemId",
          "type": "uint256"
        }
      ],
      "name": "purchaseItem",
      "outputs": [],
      "stateMutability": "payable",
      "type": "function"
    },
    {
      "inputs": [
        {
          "internalType": "uint256",
          "name": "_itemId",
          "type": "uint256"
        }
      ],
      "name": "getTotalPrice",
      "outputs": [
        {
          "internalType": "uint256",
          "name": "",
          "type": "uint256"
        }
      ],
      "stateMutability": "view",
      "type": "function"
    }
  ],
  "bytecode": "0x608060405234801561001057600080fd5b506040516113353803806113358339818101604052810190610032919061009d565b600160008190555033600160006101000a81548173ffffffffffffffffffffffffffffffffffffffff021916908373ffffffffffffffffffffffffffffffffffffffff16021790555080600281905550506100e7565b600081519050610097816100d0565b92915050565b6000602082840312156100af57600080fd5b60006100bd84828501610088565b91505092915050565b6000819050919050565b6100d9816100c6565b81146100e457600080fd5b50565b61123f806100f66000396000f3fe6080604052600436106100705760003560e01c8063bfb231d21161004e578063bfb231d2146100f6578063c6ecf2de14610138578063ca7dd37514610175578063d38ea5bf146101b257610070565b80633959f8ce146100755780636bfb0d01146100a05780637fd6f15c146100cb575b600080fd5b34801561008157600080fd5b5061008a6101ce565b6040516100979190610c6b565b60405180910390f35b3480156100ac57600080fd5b506100b56101f4565b6040516100c29190610d98565b60405180910390f35b3480156100d757600080fd5b506100e06101fa565b6040516100ed9190610d98565b60405180910390f35b34801561010257600080fd5b5061011d60048036038101906101189190610b25565b610200565b60405161012f96959493929190610db3565b60405180910390f35b34801561014457600080fd5b5061015f600480360381019061015a9190610ad6565b610289565b60405161016c9190610cbd565b60405180910390f35b34801561018157600080fd5b5061019c60048036038101906101979190610b25565b610659565b6040516101a99190610d98565b60405180910390f35b6101cc60048036038101906101c79190610b25565b61069e565b005b600160009054906101000a900473ffffffffffffffffffffffffffffffffffffffff1681565b60035481565b60025481565b60046020528060005260406000206000915090508060000154908060010160009054906101000a900473ffffffffffffffffffffffffffffffffffffffff16908060020154908060030154908060040160009054906101000a900473ffffffffffffffffffffffffffffffffffffffff16908060040160149054906101000a900460ff16905086565b6000600260005414156102d1576040517f08c379a00000000000000000000000000000000000000000000000000000000081526004016102c890610d78565b60405180910390fd5b60026000819055506000821161031c576040517f08c379a000000000000000000000000000000000000000000000000000000000815260040161031390610d38565b60405180910390fd5b3373ffffffffffffffffffffffffffffffffffffffff168473ffffffffffffffffffffffffffffffffffffffff16636352211e856040518263ffffffff1660e01b815260040161036c9190610d98565b60206040518083038186803b15801561038457600080fd5b505afa158015610398573d6000803e3d6000fd5b505050506040513d601f19601f820116820180604052508101906103bc9190610aad565b73ffffffffffffffffffffffffffffffffffffffff1614610412576040517f08c379a000000000000000000000000000000000000000000000000000000000815260040161040990610cd8565b60405180910390fd5b6003600081548092919061042590611001565b91905055508373ffffffffffffffffffffffffffffffffffffffff166323b872dd3330866040518463ffffffff1660e01b815260040161046793929190610c86565b600060405180830381600087803b15801561048157600080fd5b505af1158015610495573d6000803e3d6000fd5b505050506040518060c0016040528060035481526020018573ffffffffffffffffffffffffffffffffffffffff1681526020018481526020018381526020013373ffffffffffffffffffffffffffffffffffffffff168152602001600015158152506004600060035481526020019081526020016000206000820151816000015560208201518160010160006101000a81548173ffffffffffffffffffffffffffffffffffffffff021916908373ffffffffffffffffffffffffffffffffffffffff160217905550604082015181600201556060820151816003015560808201518160040160006101000a81548173ffffffffffffffffffffffffffffffffffffffff021916908373ffffffffffffffffffffffffffffffffffffffff16021790555060a08201518160040160146101000a81548160ff0219169083151502179055509050503373ffffffffffffffffffffffffffffffffffffffff168473ffffffffffffffffffffffffffffffffffffffff167f6d023245d834bf055dff9f535167abf134ad637755fa958b1c17ae42589b1d83600354868660405161063e93929190610e14565b60405180910390a36001905060016000819055509392505050565b60006064600254606461066c9190610e5c565b600460008581526020019081526020016000206003015461068d9190610ee3565b6106979190610eb2565b9050919050565b600260005414156106e4576040517f08c379a00000000000000000000000000000000000000000000000000000000081526004016106db90610d78565b60405180910390fd5b600260008190555060006106f782610659565b9050600060046000848152602001908152602001600020905060008311801561072257506003548311155b610761576040517f08c379a000000000000000000000000000000000000000000000000000000000815260040161075890610d58565b60405180910390fd5b813410156107a4576040517f08c379a000000000000000000000000000000000000000000000000000000000815260040161079b90610d18565b60405180910390fd5b8060040160149054906101000a900460ff16156107f6576040517f08c379a00000000000000000000000000000000000000000000000000000000081526004016107ed90610cf8565b60405180910390fd5b8060040160009054906101000a900473ffffffffffffffffffffffffffffffffffffffff1673ffffffffffffffffffffffffffffffffffffffff166108fc82600301549081150290604051600060405180830381858888f19350505050158015610864573d6000803e3d6000fd5b50600160009054906101000a900473ffffffffffffffffffffffffffffffffffffffff1673ffffffffffffffffffffffffffffffffffffffff166108fc8260030154846108b19190610f3d565b9081150290604051600060405180830381858888f193505050501580156108dc573d6000803e3d6000fd5b5060018160040160146101000a81548160ff0219169083151502179055508060010160009054906101000a900473ffffffffffffffffffffffffffffffffffffffff1673ffffffffffffffffffffffffffffffffffffffff166323b872dd303384600201546040518463ffffffff1660e01b815260040161095f93929190610c86565b600060405180830381600087803b15801561097957600080fd5b505af115801561098d573d6000803e3d6000fd5b505050503373ffffffffffffffffffffffffffffffffffffffff168160040160009054906101000a900473ffffffffffffffffffffffffffffffffffffffff1673ffffffffffffffffffffffffffffffffffffffff168260010160009054906101000a900473ffffffffffffffffffffffffffffffffffffffff1673ffffffffffffffffffffffffffffffffffffffff167faa9948c535f2ef454f4045ef726720bc3ba5fead72d18611a2d8b1793bf91c838685600201548660030154604051610a5993929190610e14565b60405180910390a45050600160008190555050565b600081519050610a7d816111c4565b92915050565b600081359050610a92816111db565b92915050565b600081359050610aa7816111f2565b92915050565b600060208284031215610abf57600080fd5b6000610acd84828501610a6e565b91505092915050565b600080600060608486031215610aeb57600080fd5b6000610af986828701610a83565b9350506020610b0a86828701610a98565b9250506040610b1b86828701610a98565b9150509250925092565b600060208284031215610b3757600080fd5b6000610b4584828501610a98565b91505092915050565b610b5781610f83565b82525050565b610b6681610f71565b82525050565b610b7581610f95565b82525050565b610b8481610fdd565b82525050565b6000610b97601e83610e4b565b9150610ba2826110a8565b602082019050919050565b6000610bba601183610e4b565b9150610bc5826110d1565b602082019050919050565b6000610bdd603383610e4b565b9150610be8826110fa565b604082019050919050565b6000610c00601983610e4b565b9150610c0b82611149565b602082019050919050565b6000610c23601283610e4b565b9150610c2e82611172565b602082019050919050565b6000610c46601f83610e4b565b9150610c518261119b565b602082019050919050565b610c6581610fd3565b82525050565b6000602082019050610c806000830184610b4e565b92915050565b6000606082019050610c9b6000830186610b5d565b610ca86020830185610b5d565b610cb56040830184610c5c565b949350505050565b6000602082019050610cd26000830184610b6c565b92915050565b60006020820190508181036000830152610cf181610b8a565b9050919050565b60006020820190508181036000830152610d1181610bad565b9050919050565b60006020820190508181036000830152610d3181610bd0565b9050919050565b60006020820190508181036000830152610d5181610bf3565b9050919050565b60006020820190508181036000830152610d7181610c16565b9050919050565b60006020820190508181036000830152610d9181610c39565b9050919050565b6000602082019050610dad6000830184610c5c565b92915050565b600060c082019050610dc86000830189610c5c565b610dd56020830188610b7b565b610de26040830187610c5c565b610def6060830186610c5c565b610dfc6080830185610b4e565b610e0960a0830184610b6c565b979650505050505050565b6000606082019050610e296000830186610c5c565b610e366020830185610c5c565b610e436040830184610c5c565b949350505050565b600082825260208201905092915050565b6000610e6782610fd3565b9150610e7283610fd3565b9250827fffffffffffffffffffffffffffffffffffffffffffffffffffffffffffffffff03821115610ea757610ea661104a565b5b828201905092915050565b6000610ebd82610fd3565b9150610ec883610fd3565b925082610ed857610ed7611079565b5b828204905092915050565b6000610eee82610fd3565b9150610ef983610fd3565b9250817fffffffffffffffffffffffffffffffffffffffffffffffffffffffffffffffff0483118215151615610f3257610f3161104a565b5b828202905092915050565b6000610f4882610fd3565b9150610f5383610fd3565b925082821015610f6657610f6561104a565b5b828203905092915050565b6000610f7c82610fb3565b9050919050565b6000610f8e82610fb3565b9050919050565b60008115159050919050565b6000610fac82610f71565b9050919050565b600073ffffffffffffffffffffffffffffffffffffffff82169050919050565b6000819050919050565b6000610fe882610fef565b9050919050565b6000610ffa82610fb3565b9050919050565b600061100c82610fd3565b91507fffffffffffffffffffffffffffffffffffffffffffffffffffffffffffffffff82141561103f5761103e61104a565b5b600182019050919050565b7f4e487b7100000000000000000000000000000000000000000000000000000000600052601160045260246000fd5b7f4e487b7100000000000000000000000000000000000000000000000000000000600052601260045260246000fd5b7f6e6674206d757374206265206f776e656420627920746865206f776e65720000600082015250565b7f6974656d20616c726561647920736f6c64000000000000000000000000000000600082015250565b7f6e6f7420656e6f75676820657468657220746f20636f766572206974656d207060008201527f7269636520616e64206d61726b65742066656500000000000000000000000000602082015250565b7f7072696365206d75737420626520677261746572207468616e00000000000000600082015250565b7f6974656d20646f65736e27742065786973740000000000000000000000000000600082015250565b7f5265656e7472616e637947756172643a207265656e7472616e742063616c6c00600082015250565b6111cd81610f71565b81146111d857600080fd5b50565b6111e481610fa1565b81146111ef57600080fd5b50565b6111fb81610fd3565b811461120657600080fd5b5056fea2646970667358221220ffaf5ca917b4135104ae8d72d824a6a32a511fec1d4646d5f12fc204f0e0ab2f64736f6c63430008010033",
  "immutableReferences": {},
  "source": "// SPDX-License-Identifier: MIT\r\n\r\npragma solidity ^0.8.1;\r\n\r\nimport \"@openzeppelin/contracts/token/ERC721/IERC721.sol\";\r\nimport \"@openzeppelin/contracts/security/ReentrancyGuard.sol\";\r\n\r\ncontract Brevet is ReentrancyGuard {\r\n    address payable public brevetOwner;\r\n    uint256 public feePercent;\r\n    uint256 public itemCount;\r\n\r\n    mapping(uint256 => Item) public items;\r\n\r\n    struct Item {\r\n        uint256 itemId;\r\n        IERC721 nft;\r\n        uint256 tokenId;\r\n        uint256 price;\r\n        address payable seller;\r\n        bool sold;\r\n    }\r\n\r\n    event NFTCreated(\r\n        uint256 itemId,\r\n        address indexed nft,\r\n        uint256 tokenId,\r\n        uint256 price,\r\n        address indexed seller\r\n    );\r\n\r\n    event BoughtNFT(\r\n        uint256 itemId,\r\n        address indexed nft,\r\n        uint256 tokenId,\r\n        uint256 price,\r\n        address indexed seller,\r\n        address indexed buyer\r\n    );\r\n\r\n    constructor(uint256 _feepercent) {\r\n        brevetOwner = payable(msg.sender);\r\n        feePercent = _feepercent;\r\n    }\r\n\r\n    // make nft patent\r\n    function createBrevetNFT(\r\n        IERC721 _nft,\r\n        uint256 _tokenId,\r\n        uint256 _price\r\n    ) external nonReentrant returns (bool) {\r\n        require(_price > 0, \"price must be grater than\");\r\n        require(\r\n            _nft.ownerOf(_tokenId) == msg.sender,\r\n            \"nft must be owned by the owner\"\r\n        );\r\n\r\n        itemCount++;\r\n\r\n        _nft.transferFrom(msg.sender, address(this), _tokenId);\r\n        items[itemCount] = Item(\r\n            itemCount,\r\n            _nft,\r\n            _tokenId,\r\n            _price,\r\n            payable(msg.sender),\r\n            false\r\n        );\r\n\r\n        emit NFTCreated(itemCount, address(_nft), _tokenId, _price, msg.sender);\r\n\r\n        return true;\r\n    }\r\n\r\n    // purchase NFT\r\n    function purchaseItem(uint256 _itemId) external payable nonReentrant {\r\n        uint256 _totalPrice = getTotalPrice(_itemId);\r\n        Item storage item = items[_itemId];\r\n        require(_itemId > 0 && _itemId <= itemCount, \"item doesn't exist\");\r\n        require(\r\n            msg.value >= _totalPrice,\r\n            \"not enough ether to cover item price and market fee\"\r\n        );\r\n        require(!item.sold, \"item already sold\");\r\n        // pay seller and feeAccount\r\n        item.seller.transfer(item.price);\r\n        brevetOwner.transfer(_totalPrice - item.price);\r\n        // update item to sold\r\n        item.sold = true;\r\n        // transfer nft to buyer\r\n        item.nft.transferFrom(address(this), msg.sender, item.tokenId);\r\n        // emit Bought event\r\n        emit BoughtNFT(\r\n            _itemId,\r\n            address(item.nft),\r\n            item.tokenId,\r\n            item.price,\r\n            item.seller,\r\n            msg.sender\r\n        );\r\n    }\r\n\r\n    function getTotalPrice(uint256 _itemId) public view returns (uint256) {\r\n        return ((items[_itemId].price * (100 + feePercent)) / 100);\r\n    }\r\n}\r\n",
  "sourcePath": "E:/Web3 dev/brevet/brevet/src/contracts/BrevetMarketplace.sol",
  "compiler": {
    "name": "solc",
    "version": "0.8.1+commit.df193b15.Emscripten.clang"
  },
  "schemaVersion": "3.2.3",
  "updatedAt": "2022-11-05T18:19:38.193Z",
  "devdoc": {
    "kind": "dev",
    "methods": {},
    "version": 1
  },
  "userdoc": {
    "kind": "user",
    "methods": {},
    "version": 1
  }
}