{
  "contractName": "BrevToken",
  "abi": [
    {
      "inputs": [],
      "stateMutability": "nonpayable",
      "type": "constructor"
    },
    {
      "anonymous": false,
      "inputs": [
        {
          "indexed": true,
          "internalType": "address",
          "name": "_owner",
          "type": "address"
        },
        {
          "indexed": true,
          "internalType": "address",
          "name": "_to",
          "type": "address"
        },
        {
          "indexed": false,
          "internalType": "uint256",
          "name": "_value",
          "type": "uint256"
        }
      ],
      "name": "Approval",
      "type": "event"
    },
    {
      "anonymous": false,
      "inputs": [
        {
          "indexed": true,
          "internalType": "address",
          "name": "_from",
          "type": "address"
        },
        {
          "indexed": true,
          "internalType": "address",
          "name": "_to",
          "type": "address"
        },
        {
          "indexed": false,
          "internalType": "uint256",
          "name": "_value",
          "type": "uint256"
        }
      ],
      "name": "Transfer",
      "type": "event"
    },
    {
      "anonymous": false,
      "inputs": [
        {
          "indexed": true,
          "internalType": "address",
          "name": "_from",
          "type": "address"
        },
        {
          "indexed": true,
          "internalType": "address",
          "name": "_to",
          "type": "address"
        },
        {
          "indexed": true,
          "internalType": "address",
          "name": "_sender",
          "type": "address"
        },
        {
          "indexed": false,
          "internalType": "uint256",
          "name": "_value",
          "type": "uint256"
        }
      ],
      "name": "TransferFrom",
      "type": "event"
    },
    {
      "inputs": [
        {
          "internalType": "address",
          "name": "",
          "type": "address"
        },
        {
          "internalType": "address",
          "name": "",
          "type": "address"
        }
      ],
      "name": "allowance",
      "outputs": [
        {
          "internalType": "uint256",
          "name": "",
          "type": "uint256"
        }
      ],
      "stateMutability": "view",
      "type": "function",
      "constant": true
    },
    {
      "inputs": [
        {
          "internalType": "address",
          "name": "",
          "type": "address"
        }
      ],
      "name": "balanceOf",
      "outputs": [
        {
          "internalType": "uint256",
          "name": "",
          "type": "uint256"
        }
      ],
      "stateMutability": "view",
      "type": "function",
      "constant": true
    },
    {
      "inputs": [],
      "name": "decimals",
      "outputs": [
        {
          "internalType": "uint8",
          "name": "",
          "type": "uint8"
        }
      ],
      "stateMutability": "view",
      "type": "function",
      "constant": true
    },
    {
      "inputs": [],
      "name": "name",
      "outputs": [
        {
          "internalType": "string",
          "name": "",
          "type": "string"
        }
      ],
      "stateMutability": "view",
      "type": "function",
      "constant": true
    },
    {
      "inputs": [],
      "name": "owner",
      "outputs": [
        {
          "internalType": "address payable",
          "name": "",
          "type": "address"
        }
      ],
      "stateMutability": "view",
      "type": "function",
      "constant": true
    },
    {
      "inputs": [],
      "name": "symbol",
      "outputs": [
        {
          "internalType": "string",
          "name": "",
          "type": "string"
        }
      ],
      "stateMutability": "view",
      "type": "function",
      "constant": true
    },
    {
      "inputs": [],
      "name": "totalSupply",
      "outputs": [
        {
          "internalType": "uint256",
          "name": "",
          "type": "uint256"
        }
      ],
      "stateMutability": "view",
      "type": "function",
      "constant": true
    },
    {
      "inputs": [],
      "name": "version",
      "outputs": [
        {
          "internalType": "string",
          "name": "",
          "type": "string"
        }
      ],
      "stateMutability": "view",
      "type": "function",
      "constant": true
    },
    {
      "inputs": [
        {
          "internalType": "address",
          "name": "_to",
          "type": "address"
        },
        {
          "internalType": "uint256",
          "name": "_value",
          "type": "uint256"
        },
        {
          "internalType": "address",
          "name": "_from",
          "type": "address"
        }
      ],
      "name": "transfer",
      "outputs": [
        {
          "internalType": "bool",
          "name": "success",
          "type": "bool"
        }
      ],
      "stateMutability": "nonpayable",
      "type": "function"
    },
    {
      "inputs": [
        {
          "internalType": "address",
          "name": "_spender",
          "type": "address"
        },
        {
          "internalType": "uint256",
          "name": "_value",
          "type": "uint256"
        }
      ],
      "name": "approve",
      "outputs": [
        {
          "internalType": "bool",
          "name": "success",
          "type": "bool"
        }
      ],
      "stateMutability": "nonpayable",
      "type": "function"
    },
    {
      "inputs": [
        {
          "internalType": "address",
          "name": "_from",
          "type": "address"
        },
        {
          "internalType": "address",
          "name": "_to",
          "type": "address"
        },
        {
          "internalType": "uint256",
          "name": "_value",
          "type": "uint256"
        }
      ],
      "name": "transferFrom",
      "outputs": [
        {
          "internalType": "bool",
          "name": "success",
          "type": "bool"
        }
      ],
      "stateMutability": "nonpayable",
      "type": "function"
    }
  ],
  "bytecode": "0x60806040526040518060400160405280600981526020017f42726576546f6b656e00000000000000000000000000000000000000000000008152506000908051906020019062000051929190620001b3565b506040518060400160405280600381526020017f4252560000000000000000000000000000000000000000000000000000000000815250600190805190602001906200009f929190620001b3565b506040518060400160405280600381526020017f312e30000000000000000000000000000000000000000000000000000000000081525060029080519060200190620000ed929190620001b3565b5069d3c21bcecceda10000006003556012600460006101000a81548160ff021916908360ff1602179055503480156200012557600080fd5b5033600460016101000a81548173ffffffffffffffffffffffffffffffffffffffff021916908373ffffffffffffffffffffffffffffffffffffffff160217905550600354600560003373ffffffffffffffffffffffffffffffffffffffff1673ffffffffffffffffffffffffffffffffffffffff16815260200190815260200160002081905550620002c8565b828054620001c19062000263565b90600052602060002090601f016020900481019282620001e5576000855562000231565b82601f106200020057805160ff191683800117855562000231565b8280016001018555821562000231579182015b828111156200023057825182559160200191906001019062000213565b5b50905062000240919062000244565b5090565b5b808211156200025f57600081600090555060010162000245565b5090565b600060028204905060018216806200027c57607f821691505b6020821081141562000293576200029262000299565b5b50919050565b7f4e487b7100000000000000000000000000000000000000000000000000000000600052602260045260246000fd5b61107a80620002d86000396000f3fe608060405234801561001057600080fd5b50600436106100a95760003560e01c806354fd4d501161007157806354fd4d501461016857806370a08231146101865780638da5cb5b146101b657806395d89b41146101d4578063dbba0f01146101f2578063dd62ed3e14610222576100a9565b806306fdde03146100ae578063095ea7b3146100cc57806318160ddd146100fc57806323b872dd1461011a578063313ce5671461014a575b600080fd5b6100b6610252565b6040516100c39190610c90565b60405180910390f35b6100e660048036038101906100e19190610af1565b6102e0565b6040516100f39190610c75565b60405180910390f35b6101046103d2565b6040516101119190610d12565b60405180910390f35b610134600480360381019061012f9190610aa2565b6103d8565b6040516101419190610c75565b60405180910390f35b6101526106e1565b60405161015f9190610d2d565b60405180910390f35b6101706106f4565b60405161017d9190610c90565b60405180910390f35b6101a0600480360381019061019b9190610a3d565b610782565b6040516101ad9190610d12565b60405180910390f35b6101be61079a565b6040516101cb9190610c5a565b60405180910390f35b6101dc6107c0565b6040516101e99190610c90565b60405180910390f35b61020c60048036038101906102079190610b2d565b61084e565b6040516102199190610c75565b60405180910390f35b61023c60048036038101906102379190610a66565b6109ee565b6040516102499190610d12565b60405180910390f35b6000805461025f90610e88565b80601f016020809104026020016040519081016040528092919081815260200182805461028b90610e88565b80156102d85780601f106102ad576101008083540402835291602001916102d8565b820191906000526020600020905b8154815290600101906020018083116102bb57829003601f168201915b505050505081565b600081600660003373ffffffffffffffffffffffffffffffffffffffff1673ffffffffffffffffffffffffffffffffffffffff16815260200190815260200160002060008573ffffffffffffffffffffffffffffffffffffffff1673ffffffffffffffffffffffffffffffffffffffff168152602001908152602001600020819055508273ffffffffffffffffffffffffffffffffffffffff163373ffffffffffffffffffffffffffffffffffffffff167f8c5be1e5ebec7d5bd14f71427d1e84f3dd0314c0f7b2291e5b200ac8c7c3b925846040516103c09190610d12565b60405180910390a36001905092915050565b60035481565b6000600560008573ffffffffffffffffffffffffffffffffffffffff1673ffffffffffffffffffffffffffffffffffffffff1681526020019081526020016000205482111561045c576040517f08c379a000000000000000000000000000000000000000000000000000000000815260040161045390610cd2565b60405180910390fd5b600660008573ffffffffffffffffffffffffffffffffffffffff1673ffffffffffffffffffffffffffffffffffffffff16815260200190815260200160002060003373ffffffffffffffffffffffffffffffffffffffff1673ffffffffffffffffffffffffffffffffffffffff1681526020019081526020016000205482111561051b576040517f08c379a000000000000000000000000000000000000000000000000000000000815260040161051290610cb2565b60405180910390fd5b81600560008573ffffffffffffffffffffffffffffffffffffffff1673ffffffffffffffffffffffffffffffffffffffff168152602001908152602001600020600082825461056a9190610d64565b9250508190555081600560008673ffffffffffffffffffffffffffffffffffffffff1673ffffffffffffffffffffffffffffffffffffffff16815260200190815260200160002060008282546105c09190610dba565b9250508190555081600660008673ffffffffffffffffffffffffffffffffffffffff1673ffffffffffffffffffffffffffffffffffffffff16815260200190815260200160002060003373ffffffffffffffffffffffffffffffffffffffff1673ffffffffffffffffffffffffffffffffffffffff16815260200190815260200160002060008282546106539190610dba565b925050819055503373ffffffffffffffffffffffffffffffffffffffff168373ffffffffffffffffffffffffffffffffffffffff168573ffffffffffffffffffffffffffffffffffffffff167f5f7542858008eeb041631f30e6109ae94b83a58e9a58261dd2c42c508850f939856040516106ce9190610d12565b60405180910390a4600190509392505050565b600460009054906101000a900460ff1681565b6002805461070190610e88565b80601f016020809104026020016040519081016040528092919081815260200182805461072d90610e88565b801561077a5780601f1061074f5761010080835404028352916020019161077a565b820191906000526020600020905b81548152906001019060200180831161075d57829003601f168201915b505050505081565b60056020528060005260406000206000915090505481565b600460019054906101000a900473ffffffffffffffffffffffffffffffffffffffff1681565b600180546107cd90610e88565b80601f01602080910402602001604051908101604052809291908181526020018280546107f990610e88565b80156108465780601f1061081b57610100808354040283529160200191610846565b820191906000526020600020905b81548152906001019060200180831161082957829003601f168201915b505050505081565b600082600560008473ffffffffffffffffffffffffffffffffffffffff1673ffffffffffffffffffffffffffffffffffffffff1681526020019081526020016000205410156108d2576040517f08c379a00000000000000000000000000000000000000000000000000000000081526004016108c990610cf2565b60405180910390fd5b82600560008673ffffffffffffffffffffffffffffffffffffffff1673ffffffffffffffffffffffffffffffffffffffff16815260200190815260200160002060008282546109219190610d64565b9250508190555082600560008473ffffffffffffffffffffffffffffffffffffffff1673ffffffffffffffffffffffffffffffffffffffff16815260200190815260200160002060008282546109779190610dba565b925050819055508373ffffffffffffffffffffffffffffffffffffffff168273ffffffffffffffffffffffffffffffffffffffff167fddf252ad1be2c89b69c2b068fc378daa952ba7f163c4a11628f55a4df523b3ef856040516109db9190610d12565b60405180910390a3600190509392505050565b6006602052816000526040600020602052806000526040600020600091509150505481565b600081359050610a2281611016565b92915050565b600081359050610a378161102d565b92915050565b600060208284031215610a4f57600080fd5b6000610a5d84828501610a13565b91505092915050565b60008060408385031215610a7957600080fd5b6000610a8785828601610a13565b9250506020610a9885828601610a13565b9150509250929050565b600080600060608486031215610ab757600080fd5b6000610ac586828701610a13565b9350506020610ad686828701610a13565b9250506040610ae786828701610a28565b9150509250925092565b60008060408385031215610b0457600080fd5b6000610b1285828601610a13565b9250506020610b2385828601610a28565b9150509250929050565b600080600060608486031215610b4257600080fd5b6000610b5086828701610a13565b9350506020610b6186828701610a28565b9250506040610b7286828701610a13565b9150509250925092565b610b8581610e00565b82525050565b610b9481610e12565b82525050565b6000610ba582610d48565b610baf8185610d53565b9350610bbf818560208601610e55565b610bc881610f18565b840191505092915050565b6000610be0603e83610d53565b9150610beb82610f29565b604082019050919050565b6000610c03603383610d53565b9150610c0e82610f78565b604082019050919050565b6000610c26602783610d53565b9150610c3182610fc7565b604082019050919050565b610c4581610e3e565b82525050565b610c5481610e48565b82525050565b6000602082019050610c6f6000830184610b7c565b92915050565b6000602082019050610c8a6000830184610b8b565b92915050565b60006020820190508181036000830152610caa8184610b9a565b905092915050565b60006020820190508181036000830152610ccb81610bd3565b9050919050565b60006020820190508181036000830152610ceb81610bf6565b9050919050565b60006020820190508181036000830152610d0b81610c19565b9050919050565b6000602082019050610d276000830184610c3c565b92915050565b6000602082019050610d426000830184610c4b565b92915050565b600081519050919050565b600082825260208201905092915050565b6000610d6f82610e3e565b9150610d7a83610e3e565b9250827fffffffffffffffffffffffffffffffffffffffffffffffffffffffffffffffff03821115610daf57610dae610eba565b5b828201905092915050565b6000610dc582610e3e565b9150610dd083610e3e565b925082821015610de357610de2610eba565b5b828203905092915050565b6000610df982610e1e565b9050919050565b6000610e0b82610e1e565b9050919050565b60008115159050919050565b600073ffffffffffffffffffffffffffffffffffffffff82169050919050565b6000819050919050565b600060ff82169050919050565b60005b83811015610e73578082015181840152602081019050610e58565b83811115610e82576000848401525b50505050565b60006002820490506001821680610ea057607f821691505b60208210811415610eb457610eb3610ee9565b5b50919050565b7f4e487b7100000000000000000000000000000000000000000000000000000000600052601160045260246000fd5b7f4e487b7100000000000000000000000000000000000000000000000000000000600052602260045260246000fd5b6000601f19601f8301169050919050565b7f76616c7565206d757374206265206c657373206f7220657175616c20746f207460008201527f686520616c6c6f77616e6365206f662073656e646572206163636f756e740000602082015250565b7f76616c7565206d757374206265206c657373207468616e207468652062616c6160008201527f6e6365206f662066726f6d206163636f756e7400000000000000000000000000602082015250565b7f73656e646572206e6f74206861766520656e6f75676820616d6f756e74206f6660008201527f20746f6b656e7300000000000000000000000000000000000000000000000000602082015250565b61101f81610dee565b811461102a57600080fd5b50565b61103681610e3e565b811461104157600080fd5b5056fea2646970667358221220169ae050c78fa8121378bbef813bbd7467c389a574b9359925de3ae2814c748d64736f6c63430008010033",
  "immutableReferences": {},
  "source": "// SPDX-License-Identifier: MIT\r\npragma solidity ^0.8.0;\r\n\r\ncontract BrevToken {\r\n    string public name = \"BrevToken\";\r\n    string public symbol = \"BRV\";\r\n    string public version = \"1.0\";\r\n    uint256 public totalSupply = 1000000000000000000000000; // 1 million tokens\r\n    uint8 public decimals = 18;\r\n    address payable public owner;\r\n\r\n    //tranfer event\r\n    event Transfer(address indexed _from, address indexed _to, uint256 _value);\r\n    // The indexed parameters for logged events will allow you to search for these events using the indexed parameters as filters.\r\n\r\n    //allowance event\r\n    event Approval(address indexed _owner, address indexed _to, uint256 _value);\r\n\r\n    //TransferFrom Event\r\n    event TransferFrom(\r\n        address indexed _from,\r\n        address indexed _to,\r\n        address indexed _sender,\r\n        uint256 _value\r\n    );\r\n\r\n    mapping(address => uint256) public balanceOf;\r\n\r\n    //allowance\r\n    mapping(address => mapping(address => uint256)) public allowance;\r\n\r\n    // pass the constructor args in migration file's deployer\r\n    constructor() {\r\n        owner = payable(msg.sender);\r\n        // allocate initail supply to some address\r\n        balanceOf[msg.sender] = totalSupply;\r\n    }\r\n\r\n    //Transfer function\r\n    function transfer(\r\n        address _to,\r\n        uint256 _value,\r\n        address _from\r\n    ) public returns (bool success) {\r\n        require(\r\n            balanceOf[_from] >= _value,\r\n            \"sender not have enough amount of tokens\"\r\n        );\r\n        // transfer\r\n        balanceOf[_to] += _value;\r\n        balanceOf[_from] -= _value;\r\n\r\n        //Transfer event\r\n        emit Transfer(_from, _to, _value);\r\n\r\n        //return a boolean\r\n        return true;\r\n    }\r\n\r\n    //Delegated transfer\r\n\r\n    // approve\r\n    // approve a specific address to use a specific amount of token to send from my account using the transfer from function\r\n\r\n    function approve(address _spender, uint256 _value)\r\n        public\r\n        returns (bool success)\r\n    {\r\n        // handel allowance\r\n        allowance[msg.sender][_spender] = _value;\r\n\r\n        // approve event\r\n        emit Approval(msg.sender, _spender, _value);\r\n\r\n        //return true\r\n        return true;\r\n    }\r\n\r\n    //transferFrom\r\n    function transferFrom(\r\n        address _from,\r\n        address _to,\r\n        uint256 _value\r\n    ) public returns (bool success) {\r\n        // require _from has enough token\r\n        require(\r\n            _value <= balanceOf[_from],\r\n            \"value must be less than the balance of from account\"\r\n        );\r\n        // require allowance is big enough\r\n        require(\r\n            _value <= allowance[_from][msg.sender],\r\n            \"value must be less or equal to the allowance of sender account\"\r\n        );\r\n        // change the balance\r\n        balanceOf[_to] += _value;\r\n        balanceOf[_from] -= _value;\r\n        // update the allowance\r\n        allowance[_from][msg.sender] -= _value;\r\n        //Transfer Event\r\n        emit TransferFrom(_from, _to, msg.sender, _value);\r\n        // return a boolean\r\n        return true;\r\n    }\r\n}\r\n",
  "sourcePath": "E:\\Web3 dev\\brevet\\brevet\\src\\contracts\\BrevToken.sol",
  "compiler": {
    "name": "solc",
    "version": "0.8.1+commit.df193b15.Emscripten.clang"
  },
  "schemaVersion": "3.2.3",
  "updatedAt": "2022-11-05T19:06:44.980Z",
  "networkType": "ethereum",
  "devdoc": {
    "kind": "dev",
    "methods": {},
    "version": 1
  },
  "userdoc": {
    "kind": "user",
    "methods": {},
    "version": 1
  }
}