{
  "contractName": "PatentNft",
  "abi": [
    {
      "inputs": [],
      "stateMutability": "nonpayable",
      "type": "constructor"
    },
    {
      "anonymous": false,
      "inputs": [
        {
          "indexed": true,
          "internalType": "address",
          "name": "owner",
          "type": "address"
        },
        {
          "indexed": true,
          "internalType": "address",
          "name": "approved",
          "type": "address"
        },
        {
          "indexed": true,
          "internalType": "uint256",
          "name": "tokenId",
          "type": "uint256"
        }
      ],
      "name": "Approval",
      "type": "event"
    },
    {
      "anonymous": false,
      "inputs": [
        {
          "indexed": true,
          "internalType": "address",
          "name": "owner",
          "type": "address"
        },
        {
          "indexed": true,
          "internalType": "address",
          "name": "operator",
          "type": "address"
        },
        {
          "indexed": false,
          "internalType": "bool",
          "name": "approved",
          "type": "bool"
        }
      ],
      "name": "ApprovalForAll",
      "type": "event"
    },
    {
      "anonymous": false,
      "inputs": [
        {
          "indexed": true,
          "internalType": "address",
          "name": "from",
          "type": "address"
        },
        {
          "indexed": true,
          "internalType": "address",
          "name": "to",
          "type": "address"
        },
        {
          "indexed": true,
          "internalType": "uint256",
          "name": "tokenId",
          "type": "uint256"
        }
      ],
      "name": "Transfer",
      "type": "event"
    },
    {
      "inputs": [
        {
          "internalType": "address",
          "name": "to",
          "type": "address"
        },
        {
          "internalType": "uint256",
          "name": "tokenId",
          "type": "uint256"
        }
      ],
      "name": "approve",
      "outputs": [],
      "stateMutability": "nonpayable",
      "type": "function"
    },
    {
      "inputs": [
        {
          "internalType": "address",
          "name": "owner",
          "type": "address"
        }
      ],
      "name": "balanceOf",
      "outputs": [
        {
          "internalType": "uint256",
          "name": "",
          "type": "uint256"
        }
      ],
      "stateMutability": "view",
      "type": "function",
      "constant": true
    },
    {
      "inputs": [
        {
          "internalType": "uint256",
          "name": "tokenId",
          "type": "uint256"
        }
      ],
      "name": "getApproved",
      "outputs": [
        {
          "internalType": "address",
          "name": "",
          "type": "address"
        }
      ],
      "stateMutability": "view",
      "type": "function",
      "constant": true
    },
    {
      "inputs": [
        {
          "internalType": "address",
          "name": "owner",
          "type": "address"
        },
        {
          "internalType": "address",
          "name": "operator",
          "type": "address"
        }
      ],
      "name": "isApprovedForAll",
      "outputs": [
        {
          "internalType": "bool",
          "name": "",
          "type": "bool"
        }
      ],
      "stateMutability": "view",
      "type": "function",
      "constant": true
    },
    {
      "inputs": [],
      "name": "name",
      "outputs": [
        {
          "internalType": "string",
          "name": "",
          "type": "string"
        }
      ],
      "stateMutability": "view",
      "type": "function",
      "constant": true
    },
    {
      "inputs": [
        {
          "internalType": "uint256",
          "name": "tokenId",
          "type": "uint256"
        }
      ],
      "name": "ownerOf",
      "outputs": [
        {
          "internalType": "address",
          "name": "",
          "type": "address"
        }
      ],
      "stateMutability": "view",
      "type": "function",
      "constant": true
    },
    {
      "inputs": [
        {
          "internalType": "address",
          "name": "from",
          "type": "address"
        },
        {
          "internalType": "address",
          "name": "to",
          "type": "address"
        },
        {
          "internalType": "uint256",
          "name": "tokenId",
          "type": "uint256"
        }
      ],
      "name": "safeTransferFrom",
      "outputs": [],
      "stateMutability": "nonpayable",
      "type": "function"
    },
    {
      "inputs": [
        {
          "internalType": "address",
          "name": "from",
          "type": "address"
        },
        {
          "internalType": "address",
          "name": "to",
          "type": "address"
        },
        {
          "internalType": "uint256",
          "name": "tokenId",
          "type": "uint256"
        },
        {
          "internalType": "bytes",
          "name": "data",
          "type": "bytes"
        }
      ],
      "name": "safeTransferFrom",
      "outputs": [],
      "stateMutability": "nonpayable",
      "type": "function"
    },
    {
      "inputs": [
        {
          "internalType": "address",
          "name": "operator",
          "type": "address"
        },
        {
          "internalType": "bool",
          "name": "approved",
          "type": "bool"
        }
      ],
      "name": "setApprovalForAll",
      "outputs": [],
      "stateMutability": "nonpayable",
      "type": "function"
    },
    {
      "inputs": [
        {
          "internalType": "bytes4",
          "name": "interfaceId",
          "type": "bytes4"
        }
      ],
      "name": "supportsInterface",
      "outputs": [
        {
          "internalType": "bool",
          "name": "",
          "type": "bool"
        }
      ],
      "stateMutability": "view",
      "type": "function",
      "constant": true
    },
    {
      "inputs": [],
      "name": "symbol",
      "outputs": [
        {
          "internalType": "string",
          "name": "",
          "type": "string"
        }
      ],
      "stateMutability": "view",
      "type": "function",
      "constant": true
    },
    {
      "inputs": [],
      "name": "tokenId",
      "outputs": [
        {
          "internalType": "uint256",
          "name": "",
          "type": "uint256"
        }
      ],
      "stateMutability": "view",
      "type": "function",
      "constant": true
    },
    {
      "inputs": [
        {
          "internalType": "uint256",
          "name": "tokenId",
          "type": "uint256"
        }
      ],
      "name": "tokenURI",
      "outputs": [
        {
          "internalType": "string",
          "name": "",
          "type": "string"
        }
      ],
      "stateMutability": "view",
      "type": "function",
      "constant": true
    },
    {
      "inputs": [
        {
          "internalType": "address",
          "name": "from",
          "type": "address"
        },
        {
          "internalType": "address",
          "name": "to",
          "type": "address"
        },
        {
          "internalType": "uint256",
          "name": "tokenId",
          "type": "uint256"
        }
      ],
      "name": "transferFrom",
      "outputs": [],
      "stateMutability": "nonpayable",
      "type": "function"
    },
    {
      "inputs": [
        {
          "internalType": "string",
          "name": "_tokenURI",
          "type": "string"
        }
      ],
      "name": "mintBrevetNFT",
      "outputs": [
        {
          "internalType": "bool",
          "name": "",
          "type": "bool"
        }
      ],
      "stateMutability": "nonpayable",
      "type": "function"
    }
  ],
  "bytecode": "0x60806040523480156200001157600080fd5b506040518060400160405280600681526020017f62726576657400000000000000000000000000000000000000000000000000008152506040518060400160405280600381526020017f4256540000000000000000000000000000000000000000000000000000000000815250816000908051906020019062000096929190620000b8565b508060019080519060200190620000af929190620000b8565b505050620001cd565b828054620000c69062000168565b90600052602060002090601f016020900481019282620000ea576000855562000136565b82601f106200010557805160ff191683800117855562000136565b8280016001018555821562000136579182015b828111156200013557825182559160200191906001019062000118565b5b50905062000145919062000149565b5090565b5b80821115620001645760008160009055506001016200014a565b5090565b600060028204905060018216806200018157607f821691505b602082108114156200019857620001976200019e565b5b50919050565b7f4e487b7100000000000000000000000000000000000000000000000000000000600052602260045260246000fd5b61286c80620001dd6000396000f3fe608060405234801561001057600080fd5b50600436106100f55760003560e01c806342842e0e11610097578063a22cb46511610066578063a22cb46514610298578063b88d4fde146102b4578063c87b56dd146102d0578063e985e9c514610300576100f5565b806342842e0e146101fe5780636352211e1461021a57806370a082311461024a57806395d89b411461027a576100f5565b8063095ea7b3116100d3578063095ea7b31461017857806317d70f7c1461019457806323b872dd146101b257806328742ced146101ce576100f5565b806301ffc9a7146100fa57806306fdde031461012a578063081812fc14610148575b600080fd5b610114600480360381019061010f9190611b46565b610330565b6040516101219190611f01565b60405180910390f35b610132610412565b60405161013f9190611f1c565b60405180910390f35b610162600480360381019061015d9190611bd9565b6104a4565b60405161016f9190611e9a565b60405180910390f35b610192600480360381019061018d9190611b0a565b6104ea565b005b61019c610602565b6040516101a991906120be565b60405180910390f35b6101cc60048036038101906101c79190611a04565b610608565b005b6101e860048036038101906101e39190611b98565b610668565b6040516101f59190611f01565b60405180910390f35b61021860048036038101906102139190611a04565b6106a3565b005b610234600480360381019061022f9190611bd9565b6106c3565b6040516102419190611e9a565b60405180910390f35b610264600480360381019061025f919061199f565b610775565b60405161027191906120be565b60405180910390f35b61028261082d565b60405161028f9190611f1c565b60405180910390f35b6102b260048036038101906102ad9190611ace565b6108bf565b005b6102ce60048036038101906102c99190611a53565b6108d5565b005b6102ea60048036038101906102e59190611bd9565b610937565b6040516102f79190611f1c565b60405180910390f35b61031a600480360381019061031591906119c8565b610a4a565b6040516103279190611f01565b60405180910390f35b60007f80ac58cd000000000000000000000000000000000000000000000000000000007bffffffffffffffffffffffffffffffffffffffffffffffffffffffff1916827bffffffffffffffffffffffffffffffffffffffffffffffffffffffff191614806103fb57507f5b5e139f000000000000000000000000000000000000000000000000000000007bffffffffffffffffffffffffffffffffffffffffffffffffffffffff1916827bffffffffffffffffffffffffffffffffffffffffffffffffffffffff1916145b8061040b575061040a82610ade565b5b9050919050565b60606000805461042190612314565b80601f016020809104026020016040519081016040528092919081815260200182805461044d90612314565b801561049a5780601f1061046f5761010080835404028352916020019161049a565b820191906000526020600020905b81548152906001019060200180831161047d57829003601f168201915b5050505050905090565b60006104af82610b48565b6004600083815260200190815260200160002060009054906101000a900473ffffffffffffffffffffffffffffffffffffffff169050919050565b60006104f5826106c3565b90508073ffffffffffffffffffffffffffffffffffffffff168373ffffffffffffffffffffffffffffffffffffffff161415610566576040517f08c379a000000000000000000000000000000000000000000000000000000000815260040161055d9061207e565b60405180910390fd5b8073ffffffffffffffffffffffffffffffffffffffff16610585610b93565b73ffffffffffffffffffffffffffffffffffffffff1614806105b457506105b3816105ae610b93565b610a4a565b5b6105f3576040517f08c379a00000000000000000000000000000000000000000000000000000000081526004016105ea9061201e565b60405180910390fd5b6105fd8383610b9b565b505050565b60075481565b610619610613610b93565b82610c54565b610658576040517f08c379a000000000000000000000000000000000000000000000000000000000815260040161064f9061209e565b60405180910390fd5b610663838383610ce9565b505050565b60006007600081548092919061067d90612377565b919050555061068e33600754610f50565b61069a6007548361112a565b60019050919050565b6106be838383604051806020016040528060008152506108d5565b505050565b6000806002600084815260200190815260200160002060009054906101000a900473ffffffffffffffffffffffffffffffffffffffff169050600073ffffffffffffffffffffffffffffffffffffffff168173ffffffffffffffffffffffffffffffffffffffff16141561076c576040517f08c379a00000000000000000000000000000000000000000000000000000000081526004016107639061205e565b60405180910390fd5b80915050919050565b60008073ffffffffffffffffffffffffffffffffffffffff168273ffffffffffffffffffffffffffffffffffffffff1614156107e6576040517f08c379a00000000000000000000000000000000000000000000000000000000081526004016107dd90611fde565b60405180910390fd5b600360008373ffffffffffffffffffffffffffffffffffffffff1673ffffffffffffffffffffffffffffffffffffffff168152602001908152602001600020549050919050565b60606001805461083c90612314565b80601f016020809104026020016040519081016040528092919081815260200182805461086890612314565b80156108b55780601f1061088a576101008083540402835291602001916108b5565b820191906000526020600020905b81548152906001019060200180831161089857829003601f168201915b5050505050905090565b6108d16108ca610b93565b838361119e565b5050565b6108e66108e0610b93565b83610c54565b610925576040517f08c379a000000000000000000000000000000000000000000000000000000000815260040161091c9061209e565b60405180910390fd5b6109318484848461130b565b50505050565b606061094282610b48565b600060066000848152602001908152602001600020805461096290612314565b80601f016020809104026020016040519081016040528092919081815260200182805461098e90612314565b80156109db5780601f106109b0576101008083540402835291602001916109db565b820191906000526020600020905b8154815290600101906020018083116109be57829003601f168201915b5050505050905060006109ec611367565b9050600081511415610a02578192505050610a45565b600082511115610a37578082604051602001610a1f929190611e76565b60405160208183030381529060405292505050610a45565b610a408461137e565b925050505b919050565b6000600560008473ffffffffffffffffffffffffffffffffffffffff1673ffffffffffffffffffffffffffffffffffffffff16815260200190815260200160002060008373ffffffffffffffffffffffffffffffffffffffff1673ffffffffffffffffffffffffffffffffffffffff16815260200190815260200160002060009054906101000a900460ff16905092915050565b60007f01ffc9a7000000000000000000000000000000000000000000000000000000007bffffffffffffffffffffffffffffffffffffffffffffffffffffffff1916827bffffffffffffffffffffffffffffffffffffffffffffffffffffffff1916149050919050565b610b51816113e6565b610b90576040517f08c379a0000000000000000000000000000000000000000000000000000000008152600401610b879061205e565b60405180910390fd5b50565b600033905090565b816004600083815260200190815260200160002060006101000a81548173ffffffffffffffffffffffffffffffffffffffff021916908373ffffffffffffffffffffffffffffffffffffffff160217905550808273ffffffffffffffffffffffffffffffffffffffff16610c0e836106c3565b73ffffffffffffffffffffffffffffffffffffffff167f8c5be1e5ebec7d5bd14f71427d1e84f3dd0314c0f7b2291e5b200ac8c7c3b92560405160405180910390a45050565b600080610c60836106c3565b90508073ffffffffffffffffffffffffffffffffffffffff168473ffffffffffffffffffffffffffffffffffffffff161480610ca25750610ca18185610a4a565b5b80610ce057508373ffffffffffffffffffffffffffffffffffffffff16610cc8846104a4565b73ffffffffffffffffffffffffffffffffffffffff16145b91505092915050565b8273ffffffffffffffffffffffffffffffffffffffff16610d09826106c3565b73ffffffffffffffffffffffffffffffffffffffff1614610d5f576040517f08c379a0000000000000000000000000000000000000000000000000000000008152600401610d5690611f5e565b60405180910390fd5b600073ffffffffffffffffffffffffffffffffffffffff168273ffffffffffffffffffffffffffffffffffffffff161415610dcf576040517f08c379a0000000000000000000000000000000000000000000000000000000008152600401610dc690611f9e565b60405180910390fd5b610dda838383611452565b610de5600082610b9b565b6001600360008573ffffffffffffffffffffffffffffffffffffffff1673ffffffffffffffffffffffffffffffffffffffff1681526020019081526020016000206000828254610e35919061222a565b925050819055506001600360008473ffffffffffffffffffffffffffffffffffffffff1673ffffffffffffffffffffffffffffffffffffffff1681526020019081526020016000206000828254610e8c91906121a3565b92505081905550816002600083815260200190815260200160002060006101000a81548173ffffffffffffffffffffffffffffffffffffffff021916908373ffffffffffffffffffffffffffffffffffffffff160217905550808273ffffffffffffffffffffffffffffffffffffffff168473ffffffffffffffffffffffffffffffffffffffff167fddf252ad1be2c89b69c2b068fc378daa952ba7f163c4a11628f55a4df523b3ef60405160405180910390a4610f4b838383611457565b505050565b600073ffffffffffffffffffffffffffffffffffffffff168273ffffffffffffffffffffffffffffffffffffffff161415610fc0576040517f08c379a0000000000000000000000000000000000000000000000000000000008152600401610fb79061203e565b60405180910390fd5b610fc9816113e6565b15611009576040517f08c379a000000000000000000000000000000000000000000000000000000000815260040161100090611f7e565b60405180910390fd5b61101560008383611452565b6001600360008473ffffffffffffffffffffffffffffffffffffffff1673ffffffffffffffffffffffffffffffffffffffff168152602001908152602001600020600082825461106591906121a3565b92505081905550816002600083815260200190815260200160002060006101000a81548173ffffffffffffffffffffffffffffffffffffffff021916908373ffffffffffffffffffffffffffffffffffffffff160217905550808273ffffffffffffffffffffffffffffffffffffffff16600073ffffffffffffffffffffffffffffffffffffffff167fddf252ad1be2c89b69c2b068fc378daa952ba7f163c4a11628f55a4df523b3ef60405160405180910390a461112660008383611457565b5050565b611133826113e6565b611172576040517f08c379a000000000000000000000000000000000000000000000000000000000815260040161116990611ffe565b60405180910390fd5b806006600084815260200190815260200160002090805190602001906111999291906117c3565b505050565b8173ffffffffffffffffffffffffffffffffffffffff168373ffffffffffffffffffffffffffffffffffffffff16141561120d576040517f08c379a000000000000000000000000000000000000000000000000000000000815260040161120490611fbe565b60405180910390fd5b80600560008573ffffffffffffffffffffffffffffffffffffffff1673ffffffffffffffffffffffffffffffffffffffff16815260200190815260200160002060008473ffffffffffffffffffffffffffffffffffffffff1673ffffffffffffffffffffffffffffffffffffffff16815260200190815260200160002060006101000a81548160ff0219169083151502179055508173ffffffffffffffffffffffffffffffffffffffff168373ffffffffffffffffffffffffffffffffffffffff167f17307eab39ab6107e8899845ad3d59bd9653f200f220920489ca2b5937696c31836040516112fe9190611f01565b60405180910390a3505050565b611316848484610ce9565b6113228484848461145c565b611361576040517f08c379a000000000000000000000000000000000000000000000000000000000815260040161135890611f3e565b60405180910390fd5b50505050565b606060405180602001604052806000815250905090565b606061138982610b48565b6000611393611367565b905060008151116113b357604051806020016040528060008152506113de565b806113bd846115f3565b6040516020016113ce929190611e76565b6040516020818303038152906040525b915050919050565b60008073ffffffffffffffffffffffffffffffffffffffff166002600084815260200190815260200160002060009054906101000a900473ffffffffffffffffffffffffffffffffffffffff1673ffffffffffffffffffffffffffffffffffffffff1614159050919050565b505050565b505050565b600061147d8473ffffffffffffffffffffffffffffffffffffffff166117a0565b156115e6578373ffffffffffffffffffffffffffffffffffffffff1663150b7a026114a6610b93565b8786866040518563ffffffff1660e01b81526004016114c89493929190611eb5565b602060405180830381600087803b1580156114e257600080fd5b505af192505050801561151357506040513d601f19601f820116820180604052508101906115109190611b6f565b60015b611596573d8060008114611543576040519150601f19603f3d011682016040523d82523d6000602084013e611548565b606091505b5060008151141561158e576040517f08c379a000000000000000000000000000000000000000000000000000000000815260040161158590611f3e565b60405180910390fd5b805181602001fd5b63150b7a0260e01b7bffffffffffffffffffffffffffffffffffffffffffffffffffffffff1916817bffffffffffffffffffffffffffffffffffffffffffffffffffffffff1916149150506115eb565b600190505b949350505050565b6060600082141561163b576040518060400160405280600181526020017f3000000000000000000000000000000000000000000000000000000000000000815250905061179b565b600082905060005b6000821461166d57808061165690612377565b915050600a8261166691906121f9565b9150611643565b60008167ffffffffffffffff8111156116af577f4e487b7100000000000000000000000000000000000000000000000000000000600052604160045260246000fd5b6040519080825280601f01601f1916602001820160405280156116e15781602001600182028036833780820191505090505b5090505b60008514611794576001826116fa919061222a565b9150600a8561170991906123c0565b603061171591906121a3565b60f81b818381518110611751577f4e487b7100000000000000000000000000000000000000000000000000000000600052603260045260246000fd5b60200101907effffffffffffffffffffffffffffffffffffffffffffffffffffffffffffff1916908160001a905350600a8561178d91906121f9565b94506116e5565b8093505050505b919050565b6000808273ffffffffffffffffffffffffffffffffffffffff163b119050919050565b8280546117cf90612314565b90600052602060002090601f0160209004810192826117f15760008555611838565b82601f1061180a57805160ff1916838001178555611838565b82800160010185558215611838579182015b8281111561183757825182559160200191906001019061181c565b5b5090506118459190611849565b5090565b5b8082111561186257600081600090555060010161184a565b5090565b6000611879611874846120fe565b6120d9565b90508281526020810184848401111561189157600080fd5b61189c8482856122d2565b509392505050565b60006118b76118b28461212f565b6120d9565b9050828152602081018484840111156118cf57600080fd5b6118da8482856122d2565b509392505050565b6000813590506118f1816127da565b92915050565b600081359050611906816127f1565b92915050565b60008135905061191b81612808565b92915050565b60008151905061193081612808565b92915050565b600082601f83011261194757600080fd5b8135611957848260208601611866565b91505092915050565b600082601f83011261197157600080fd5b81356119818482602086016118a4565b91505092915050565b6000813590506119998161281f565b92915050565b6000602082840312156119b157600080fd5b60006119bf848285016118e2565b91505092915050565b600080604083850312156119db57600080fd5b60006119e9858286016118e2565b92505060206119fa858286016118e2565b9150509250929050565b600080600060608486031215611a1957600080fd5b6000611a27868287016118e2565b9350506020611a38868287016118e2565b9250506040611a498682870161198a565b9150509250925092565b60008060008060808587031215611a6957600080fd5b6000611a77878288016118e2565b9450506020611a88878288016118e2565b9350506040611a998782880161198a565b925050606085013567ffffffffffffffff811115611ab657600080fd5b611ac287828801611936565b91505092959194509250565b60008060408385031215611ae157600080fd5b6000611aef858286016118e2565b9250506020611b00858286016118f7565b9150509250929050565b60008060408385031215611b1d57600080fd5b6000611b2b858286016118e2565b9250506020611b3c8582860161198a565b9150509250929050565b600060208284031215611b5857600080fd5b6000611b668482850161190c565b91505092915050565b600060208284031215611b8157600080fd5b6000611b8f84828501611921565b91505092915050565b600060208284031215611baa57600080fd5b600082013567ffffffffffffffff811115611bc457600080fd5b611bd084828501611960565b91505092915050565b600060208284031215611beb57600080fd5b6000611bf98482850161198a565b91505092915050565b611c0b8161225e565b82525050565b611c1a81612270565b82525050565b6000611c2b82612160565b611c358185612176565b9350611c458185602086016122e1565b611c4e816124ad565b840191505092915050565b6000611c648261216b565b611c6e8185612187565b9350611c7e8185602086016122e1565b611c87816124ad565b840191505092915050565b6000611c9d8261216b565b611ca78185612198565b9350611cb78185602086016122e1565b80840191505092915050565b6000611cd0603283612187565b9150611cdb826124be565b604082019050919050565b6000611cf3602583612187565b9150611cfe8261250d565b604082019050919050565b6000611d16601c83612187565b9150611d218261255c565b602082019050919050565b6000611d39602483612187565b9150611d4482612585565b604082019050919050565b6000611d5c601983612187565b9150611d67826125d4565b602082019050919050565b6000611d7f602983612187565b9150611d8a826125fd565b604082019050919050565b6000611da2602e83612187565b9150611dad8261264c565b604082019050919050565b6000611dc5603e83612187565b9150611dd08261269b565b604082019050919050565b6000611de8602083612187565b9150611df3826126ea565b602082019050919050565b6000611e0b601883612187565b9150611e1682612713565b602082019050919050565b6000611e2e602183612187565b9150611e398261273c565b604082019050919050565b6000611e51602e83612187565b9150611e5c8261278b565b604082019050919050565b611e70816122c8565b82525050565b6000611e828285611c92565b9150611e8e8284611c92565b91508190509392505050565b6000602082019050611eaf6000830184611c02565b92915050565b6000608082019050611eca6000830187611c02565b611ed76020830186611c02565b611ee46040830185611e67565b8181036060830152611ef68184611c20565b905095945050505050565b6000602082019050611f166000830184611c11565b92915050565b60006020820190508181036000830152611f368184611c59565b905092915050565b60006020820190508181036000830152611f5781611cc3565b9050919050565b60006020820190508181036000830152611f7781611ce6565b9050919050565b60006020820190508181036000830152611f9781611d09565b9050919050565b60006020820190508181036000830152611fb781611d2c565b9050919050565b60006020820190508181036000830152611fd781611d4f565b9050919050565b60006020820190508181036000830152611ff781611d72565b9050919050565b6000602082019050818103600083015261201781611d95565b9050919050565b6000602082019050818103600083015261203781611db8565b9050919050565b6000602082019050818103600083015261205781611ddb565b9050919050565b6000602082019050818103600083015261207781611dfe565b9050919050565b6000602082019050818103600083015261209781611e21565b9050919050565b600060208201905081810360008301526120b781611e44565b9050919050565b60006020820190506120d36000830184611e67565b92915050565b60006120e36120f4565b90506120ef8282612346565b919050565b6000604051905090565b600067ffffffffffffffff8211156121195761211861247e565b5b612122826124ad565b9050602081019050919050565b600067ffffffffffffffff82111561214a5761214961247e565b5b612153826124ad565b9050602081019050919050565b600081519050919050565b600081519050919050565b600082825260208201905092915050565b600082825260208201905092915050565b600081905092915050565b60006121ae826122c8565b91506121b9836122c8565b9250827fffffffffffffffffffffffffffffffffffffffffffffffffffffffffffffffff038211156121ee576121ed6123f1565b5b828201905092915050565b6000612204826122c8565b915061220f836122c8565b92508261221f5761221e612420565b5b828204905092915050565b6000612235826122c8565b9150612240836122c8565b925082821015612253576122526123f1565b5b828203905092915050565b6000612269826122a8565b9050919050565b60008115159050919050565b60007fffffffff0000000000000000000000000000000000000000000000000000000082169050919050565b600073ffffffffffffffffffffffffffffffffffffffff82169050919050565b6000819050919050565b82818337600083830152505050565b60005b838110156122ff5780820151818401526020810190506122e4565b8381111561230e576000848401525b50505050565b6000600282049050600182168061232c57607f821691505b602082108114156123405761233f61244f565b5b50919050565b61234f826124ad565b810181811067ffffffffffffffff8211171561236e5761236d61247e565b5b80604052505050565b6000612382826122c8565b91507fffffffffffffffffffffffffffffffffffffffffffffffffffffffffffffffff8214156123b5576123b46123f1565b5b600182019050919050565b60006123cb826122c8565b91506123d6836122c8565b9250826123e6576123e5612420565b5b828206905092915050565b7f4e487b7100000000000000000000000000000000000000000000000000000000600052601160045260246000fd5b7f4e487b7100000000000000000000000000000000000000000000000000000000600052601260045260246000fd5b7f4e487b7100000000000000000000000000000000000000000000000000000000600052602260045260246000fd5b7f4e487b7100000000000000000000000000000000000000000000000000000000600052604160045260246000fd5b6000601f19601f8301169050919050565b7f4552433732313a207472616e7366657220746f206e6f6e20455243373231526560008201527f63656976657220696d706c656d656e7465720000000000000000000000000000602082015250565b7f4552433732313a207472616e736665722066726f6d20696e636f72726563742060008201527f6f776e6572000000000000000000000000000000000000000000000000000000602082015250565b7f4552433732313a20746f6b656e20616c7265616479206d696e74656400000000600082015250565b7f4552433732313a207472616e7366657220746f20746865207a65726f2061646460008201527f7265737300000000000000000000000000000000000000000000000000000000602082015250565b7f4552433732313a20617070726f766520746f2063616c6c657200000000000000600082015250565b7f4552433732313a2061646472657373207a65726f206973206e6f74206120766160008201527f6c6964206f776e65720000000000000000000000000000000000000000000000602082015250565b7f45524337323155524953746f726167653a2055524920736574206f66206e6f6e60008201527f6578697374656e7420746f6b656e000000000000000000000000000000000000602082015250565b7f4552433732313a20617070726f76652063616c6c6572206973206e6f7420746f60008201527f6b656e206f776e6572206e6f7220617070726f76656420666f7220616c6c0000602082015250565b7f4552433732313a206d696e7420746f20746865207a65726f2061646472657373600082015250565b7f4552433732313a20696e76616c696420746f6b656e2049440000000000000000600082015250565b7f4552433732313a20617070726f76616c20746f2063757272656e74206f776e6560008201527f7200000000000000000000000000000000000000000000000000000000000000602082015250565b7f4552433732313a2063616c6c6572206973206e6f7420746f6b656e206f776e6560008201527f72206e6f7220617070726f766564000000000000000000000000000000000000602082015250565b6127e38161225e565b81146127ee57600080fd5b50565b6127fa81612270565b811461280557600080fd5b50565b6128118161227c565b811461281c57600080fd5b50565b612828816122c8565b811461283357600080fd5b5056fea26469706673582212204d528fcac9df51c68b21eb026bd4ec88cb4e122bb13e147ea59f2d9504bb3d8c64736f6c63430008010033",
  "immutableReferences": {},
  "source": "// SPDX-License-Identifier: MIT\r\n\r\npragma solidity ^0.8.1;\r\n\r\nimport \"@openzeppelin/contracts/token/ERC721/extensions/ERC721URIStorage.sol\";\r\n\r\ncontract PatentNft is ERC721URIStorage {\r\n    uint256 public tokenId;\r\n\r\n    constructor() ERC721(\"brevet\", \"BVT\") {}\r\n\r\n    function mintBrevetNFT(string memory _tokenURI) external returns (bool) {\r\n        tokenId++;\r\n        _mint(msg.sender, tokenId);\r\n        _setTokenURI(tokenId, _tokenURI);\r\n        return true;\r\n    }\r\n}\r\n",
  "sourcePath": "E:/Web3 dev/brevet/brevet/src/contracts/patentnft.sol",
  "compiler": {
    "name": "solc",
    "version": "0.8.1+commit.df193b15.Emscripten.clang"
  },
  "schemaVersion": "3.2.3",
  "updatedAt": "2022-11-05T19:06:44.998Z",
  "networkType": "ethereum",
  "devdoc": {
    "kind": "dev",
    "methods": {
      "approve(address,uint256)": {
        "details": "See {IERC721-approve}."
      },
      "balanceOf(address)": {
        "details": "See {IERC721-balanceOf}."
      },
      "getApproved(uint256)": {
        "details": "See {IERC721-getApproved}."
      },
      "isApprovedForAll(address,address)": {
        "details": "See {IERC721-isApprovedForAll}."
      },
      "name()": {
        "details": "See {IERC721Metadata-name}."
      },
      "ownerOf(uint256)": {
        "details": "See {IERC721-ownerOf}."
      },
      "safeTransferFrom(address,address,uint256)": {
        "details": "See {IERC721-safeTransferFrom}."
      },
      "safeTransferFrom(address,address,uint256,bytes)": {
        "details": "See {IERC721-safeTransferFrom}."
      },
      "setApprovalForAll(address,bool)": {
        "details": "See {IERC721-setApprovalForAll}."
      },
      "supportsInterface(bytes4)": {
        "details": "See {IERC165-supportsInterface}."
      },
      "symbol()": {
        "details": "See {IERC721Metadata-symbol}."
      },
      "tokenURI(uint256)": {
        "details": "See {IERC721Metadata-tokenURI}."
      },
      "transferFrom(address,address,uint256)": {
        "details": "See {IERC721-transferFrom}."
      }
    },
    "version": 1
  },
  "userdoc": {
    "kind": "user",
    "methods": {},
    "version": 1
  }
}