{
  "contractName": "ResearchHelper",
  "abi": [
    {
      "inputs": [
        {
          "internalType": "contract BrevToken",
          "name": "_brevToken",
          "type": "address"
        }
      ],
      "stateMutability": "nonpayable",
      "type": "constructor"
    },
    {
      "anonymous": false,
      "inputs": [
        {
          "indexed": true,
          "internalType": "address",
          "name": "contributer",
          "type": "address"
        },
        {
          "indexed": true,
          "internalType": "address",
          "name": "researcher",
          "type": "address"
        },
        {
          "indexed": false,
          "internalType": "uint256",
          "name": "value",
          "type": "uint256"
        }
      ],
      "name": "Contibution",
      "type": "event"
    },
    {
      "inputs": [],
      "name": "brevToken",
      "outputs": [
        {
          "internalType": "contract BrevToken",
          "name": "",
          "type": "address"
        }
      ],
      "stateMutability": "view",
      "type": "function",
      "constant": true
    },
    {
      "inputs": [
        {
          "internalType": "address",
          "name": "",
          "type": "address"
        },
        {
          "internalType": "address",
          "name": "",
          "type": "address"
        }
      ],
      "name": "contributers",
      "outputs": [
        {
          "internalType": "uint256",
          "name": "",
          "type": "uint256"
        }
      ],
      "stateMutability": "view",
      "type": "function",
      "constant": true
    },
    {
      "inputs": [
        {
          "internalType": "address",
          "name": "",
          "type": "address"
        }
      ],
      "name": "fundRaised",
      "outputs": [
        {
          "internalType": "uint256",
          "name": "",
          "type": "uint256"
        }
      ],
      "stateMutability": "view",
      "type": "function",
      "constant": true
    },
    {
      "inputs": [
        {
          "internalType": "address",
          "name": "",
          "type": "address"
        }
      ],
      "name": "oldUser",
      "outputs": [
        {
          "internalType": "bool",
          "name": "",
          "type": "bool"
        }
      ],
      "stateMutability": "view",
      "type": "function",
      "constant": true
    },
    {
      "inputs": [
        {
          "internalType": "address",
          "name": "_researcher",
          "type": "address"
        }
      ],
      "name": "contibute",
      "outputs": [],
      "stateMutability": "payable",
      "type": "function",
      "payable": true
    },
    {
      "inputs": [
        {
          "internalType": "address payable",
          "name": "_user",
          "type": "address"
        }
      ],
      "name": "IssueToken",
      "outputs": [
        {
          "internalType": "bool",
          "name": "",
          "type": "bool"
        }
      ],
      "stateMutability": "payable",
      "type": "function",
      "payable": true
    }
  ],
  "bytecode": "0x608060405234801561001057600080fd5b50604051610b48380380610b48833981810160405281019061003291906100ce565b80600160006101000a81548173ffffffffffffffffffffffffffffffffffffffff021916908373ffffffffffffffffffffffffffffffffffffffff160217905550806000806101000a81548173ffffffffffffffffffffffffffffffffffffffff021916908373ffffffffffffffffffffffffffffffffffffffff16021790555050610152565b6000815190506100c88161013b565b92915050565b6000602082840312156100e057600080fd5b60006100ee848285016100b9565b91505092915050565b60006101028261011b565b9050919050565b6000610114826100f7565b9050919050565b600073ffffffffffffffffffffffffffffffffffffffff82169050919050565b61014481610109565b811461014f57600080fd5b50565b6109e7806101616000396000f3fe6080604052600436106100555760003560e01c80633512a6d01461005a57806350dc4fe81461008a578063a863430c146100b5578063e236d8d5146100f2578063ed2c0ea31461012f578063f4d537471461014b575b600080fd5b610074600480360381019061006f9190610638565b610188565b60405161008191906107e9565b60405180910390f35b34801561009657600080fd5b5061009f6103d3565b6040516100ac9190610804565b60405180910390f35b3480156100c157600080fd5b506100dc60048036038101906100d7919061068a565b6103f7565b6040516100e9919061083f565b60405180910390f35b3480156100fe57600080fd5b506101196004803603810190610114919061060f565b61041c565b604051610126919061083f565b60405180910390f35b6101496004803603810190610144919061060f565b610434565b005b34801561015757600080fd5b50610172600480360381019061016d919061060f565b61059b565b60405161017f91906107e9565b60405180910390f35b6000801515600260008473ffffffffffffffffffffffffffffffffffffffff1673ffffffffffffffffffffffffffffffffffffffff16815260200190815260200160002060009054906101000a900460ff1615151461021c576040517f08c379a00000000000000000000000000000000000000000000000000000000081526004016102139061081f565b60405180910390fd5b60008054906101000a900473ffffffffffffffffffffffffffffffffffffffff1673ffffffffffffffffffffffffffffffffffffffff1663dbba0f018368056bc75e2d6310000060008054906101000a900473ffffffffffffffffffffffffffffffffffffffff1673ffffffffffffffffffffffffffffffffffffffff16638da5cb5b6040518163ffffffff1660e01b815260040160206040518083038186803b1580156102c957600080fd5b505afa1580156102dd573d6000803e3d6000fd5b505050506040513d601f19601f820116820180604052508101906103019190610661565b6040518463ffffffff1660e01b815260040161031f9392919061077b565b602060405180830381600087803b15801561033957600080fd5b505af115801561034d573d6000803e3d6000fd5b505050506040513d601f19601f8201168201806040525081019061037191906106c6565b506001600260008473ffffffffffffffffffffffffffffffffffffffff1673ffffffffffffffffffffffffffffffffffffffff16815260200190815260200160002060006101000a81548160ff02191690831515021790555060019050919050565b60008054906101000a900473ffffffffffffffffffffffffffffffffffffffff1681565b6004602052816000526040600020602052806000526040600020600091509150505481565b60036020528060005260406000206000915090505481565b8073ffffffffffffffffffffffffffffffffffffffff166108fc349081150290604051600060405180830381858888f1935050505015801561047a573d6000803e3d6000fd5b5060008054906101000a900473ffffffffffffffffffffffffffffffffffffffff1673ffffffffffffffffffffffffffffffffffffffff1663dbba0f0133671bc16d674ec80000846040518463ffffffff1660e01b81526004016104e0939291906107b2565b602060405180830381600087803b1580156104fa57600080fd5b505af115801561050e573d6000803e3d6000fd5b505050506040513d601f19601f8201168201806040525081019061053291906106c6565b508073ffffffffffffffffffffffffffffffffffffffff163373ffffffffffffffffffffffffffffffffffffffff167fb9bad9d8cb073e58dbfcf602f9833c2d9fc7f84b3ec27373d2dfd47022bc151634604051610590919061083f565b60405180910390a350565b60026020528060005260406000206000915054906101000a900460ff1681565b6000813590506105ca8161096c565b92915050565b6000813590506105df81610983565b92915050565b6000815190506105f481610983565b92915050565b6000815190506106098161099a565b92915050565b60006020828403121561062157600080fd5b600061062f848285016105bb565b91505092915050565b60006020828403121561064a57600080fd5b6000610658848285016105d0565b91505092915050565b60006020828403121561067357600080fd5b6000610681848285016105e5565b91505092915050565b6000806040838503121561069d57600080fd5b60006106ab858286016105bb565b92505060206106bc858286016105bb565b9150509250929050565b6000602082840312156106d857600080fd5b60006106e6848285016105fa565b91505092915050565b6106f8816108c5565b82525050565b6107078161086b565b82525050565b6107168161088f565b82525050565b610725816108d7565b82525050565b610734816108fb565b82525050565b6107438161090d565b82525050565b600061075660158361085a565b915061076182610943565b602082019050919050565b610775816108bb565b82525050565b600060608201905061079060008301866106ef565b61079d602083018561072b565b6107aa60408301846106ef565b949350505050565b60006060820190506107c760008301866106fe565b6107d4602083018561073a565b6107e160408301846106fe565b949350505050565b60006020820190506107fe600083018461070d565b92915050565b6000602082019050610819600083018461071c565b92915050565b6000602082019050818103600083015261083881610749565b9050919050565b6000602082019050610854600083018461076c565b92915050565b600082825260208201905092915050565b60006108768261089b565b9050919050565b60006108888261089b565b9050919050565b60008115159050919050565b600073ffffffffffffffffffffffffffffffffffffffff82169050919050565b6000819050919050565b60006108d08261091f565b9050919050565b60006108e2826108e9565b9050919050565b60006108f48261089b565b9050919050565b6000610906826108bb565b9050919050565b6000610918826108bb565b9050919050565b600061092a82610931565b9050919050565b600061093c8261089b565b9050919050565b7f546f6b656e7320416c7265616479204973737565640000000000000000000000600082015250565b6109758161086b565b811461098057600080fd5b50565b61098c8161087d565b811461099757600080fd5b50565b6109a38161088f565b81146109ae57600080fd5b5056fea2646970667358221220121db6f93d716fa18e26ee44443abcba868781a3baa338b4cee565f6a148f25f64736f6c63430008010033",
  "immutableReferences": {},
  "source": "// SPDX-License-Identifier: MIT\r\n\r\npragma solidity ^0.8.1;\r\n\r\nimport \"./BrevToken.sol\";\r\n\r\ncontract ResearchHelper {\r\n    BrevToken public brevToken;\r\n    address private brevTokenAdd;\r\n    mapping(address => bool) public oldUser;\r\n\r\n    event Contibution(\r\n        address indexed contributer,\r\n        address indexed researcher,\r\n        uint256 value\r\n    );\r\n\r\n    constructor(BrevToken _brevToken) {\r\n        brevTokenAdd = address(_brevToken);\r\n        brevToken = _brevToken;\r\n    }\r\n\r\n    //fund raised\r\n    mapping(address => uint256) public fundRaised;\r\n    // contributers\r\n    mapping(address => mapping(address => uint256)) public contributers;\r\n\r\n    //contribute function\r\n    function contibute(address _researcher) public payable {\r\n        payable(_researcher).transfer(msg.value);\r\n        brevToken.transfer(msg.sender, 2000000000000000000, _researcher);\r\n        emit Contibution(msg.sender, _researcher, msg.value);\r\n    }\r\n\r\n    function IssueToken(address payable _user) public payable returns (bool) {\r\n        require(oldUser[_user] == false, \"Tokens Already Issued\");\r\n\r\n        brevToken.transfer(_user, 100000000000000000000, brevToken.owner());\r\n        oldUser[_user] = true;\r\n        return true;\r\n    }\r\n}\r\n",
  "sourcePath": "E:/Web3 dev/brevet/brevet/src/contracts/ResearchHelper.sol",
  "compiler": {
    "name": "solc",
    "version": "0.8.1+commit.df193b15.Emscripten.clang"
  },
  "schemaVersion": "3.2.3",
  "updatedAt": "2022-11-05T19:06:45.003Z",
  "networkType": "ethereum",
  "devdoc": {
    "kind": "dev",
    "methods": {},
    "version": 1
  },
  "userdoc": {
    "kind": "user",
    "methods": {},
    "version": 1
  }
}